:100000000C9461000C947E000C947E000C947E0095
:100010000C947E000C947E000C947E000C947E0068
:100020000C947E000C947E000C947E000C947E0058
:100030000C947E000C947E000C947E000C947E0048
:100040000C9478010C947E000C947E000C947E003D
:100050000C947E000C947E000C947E000C947E0028
:100060000C947E000C947E00000000080002010049
:100070000003040700000000000000000102040863
:100080001020408001020408102001020408102002
:10009000040404040404040402020202020203032E
:1000A00003030303000000002300260029000000D2
:1000B0000000250028002B0000000000240027007D
:1000C0002A0011241FBECFEFD8E0DEBFCDBF11E064
:1000D000A0E0B1E0EEEFF3E002C005900D92A23097
:1000E000B107D9F721E0A2E0B1E001C01D92AC3028
:1000F000B207E1F70E9469010C94FD010C94000025
:1001000060E082E00E94D00061E08DE00C94D000BD
:1001100082E00E943F01892B19F481E08093020163
:1001200082E00E943F01019789F4809102018823B7
:1001300069F0609100018DE00E9409018091000149
:1001400091E0892780930001109202010895833085
:1001500081F028F4813099F08230A1F00895873041
:10016000A9F08830B9F08430D1F4809180008F7D7F
:1001700003C0809180008F7780938000089584B5BC
:100180008F7702C084B58F7D84BD08958091B000C3
:100190008F7703C08091B0008F7D8093B000089569
:1001A000CF93DF9390E0FC01E458FF4F2491FC01D2
:1001B000E057FF4F8491882349F190E0880F991F01
:1001C000FC01E854FF4FA591B49182559F4FFC016B
:1001D000C591D4919FB7611108C0F8948C91209576
:1001E00082238C93888182230AC0623051F4F89470
:1001F0008C91322F309583238C938881822B888336
:1002000004C0F8948C91822B8C939FBFDF91CF9187
:1002100008950F931F93CF93DF931F92CDB7DEB74F
:10022000282F30E0F901E859FF4F8491F901E45893
:10023000FF4F1491F901E057FF4F04910023C9F0DB
:10024000882321F069830E94A7006981E02FF0E0F4
:10025000EE0FFF1FE255FF4FA591B4919FB7F894A1
:100260008C91611103C01095812301C0812B8C9367
:100270009FBF0F90DF91CF911F910F910895CF9362
:10028000DF93282F30E0F901E859FF4F8491F901FD
:10029000E458FF4FD491F901E057FF4FC491CC23AC
:1002A00091F081110E94A700EC2FF0E0EE0FFF1FEC
:1002B000EC55FF4FA591B4912C912D2381E090E056
:1002C00021F480E002C080E090E0DF91CF910895BA
:1002D00008950E94C2010E9468010E948000C0E04F
:1002E000D0E00E9488002097E1F30E940000F9CF3F
:1002F0001F920F920FB60F9211242F933F938F935B
:100300009F93AF93BF938091040190910501A091B9
:100310000601B09107013091030123E0230F2D372F
:1003200020F40196A11DB11D05C026E8230F0296F9
:10033000A11DB11D20930301809304019093050139
:10034000A0930601B09307018091080190910901E3
:10035000A0910A01B0910B010196A11DB11D8093DE
:10036000080190930901A0930A01B0930B01BF917A
:10037000AF919F918F913F912F910F900FBE0F9052
:100380001F901895789484B5826084BD84B581608F
:1003900084BD85B5826085BD85B5816085BDEEE68D
:1003A000F0E0808181608083E1E8F0E0108280816C
:1003B00082608083808181608083E0E8F0E08081DA
:1003C00081608083E1EBF0E0808184608083E0EBFA
:1003D000F0E0808181608083EAE7F0E080818460E2
:1003E000808380818260808380818160808380813E
:0E03F000806880831092C1000895F894FFCFBA
:0203FE000100FC
:00000001FF
