:100000000C9462000C948A000C948A000C948A0070
:100010000C948A000C948A000C948A000C948A0038
:100020000C948A000C948A000C948A000C948A0028
:100030000C948A000C948A000C948A000C948A0018
:100040000C940F010C948A000C9461040C9493049A
:100050000C948A000C948A000C948A000C948A00F8
:100060000C948A000C948A00000000080002010031
:100070000003040700000000000000000102040863
:100080001020408001020408102001020408102002
:10009000040404040404040402020202020203032E
:1000A00003030303000000002300260029000000D2
:1000B0000000250028002B0000000000240027007D
:1000C0002A00C30411241FBECFEFD8E0DEBFCDBF8E
:1000D00011E0A0E0B1E0E2EDFAE002C005900D927F
:1000E000A231B107D9F721E0A2E1B1E001C01D9230
:1000F000AC3BB207E1F710E0C4ECD0E004C02297BB
:10010000FE010E946305C23CD107C9F70E940705A2
:100110000C9467050C94000061E085E00E94840265
:1001200061E086E00E94840262E083E00E94840233
:1001300062E084E00E94840226E040E855E260E04C
:1001400070E08FE191E00C94FF0380911201909197
:1001500013010297C9F48EE00E94DF01809314011D
:1001600090931501BC0197FF02C06D5F7F4F75959D
:1001700067957595679585E00E94FC016AE070E0DF
:1001800080E090E00E947C01809112019091130127
:100190000397C9F48EE00E94DF01809314019093CD
:1001A0001501BC0197FF02C06D5F7F4F7595679584
:1001B0007595679586E00E94FC016AE070E080E03A
:1001C00090E00E947C0183E00E94F302892B89F475
:1001D00060E070E086E00E94FC0168EE73E080E081
:1001E00090E00E947C0182E090E090931301809364
:1001F000120184E00E94F302892B81F460E085E023
:100200000E94BD0268EE73E080E090E00E947C01F5
:1002100083E090E0909313018093120108951F9260
:100220000F920FB60F9211242F933F938F939F93AA
:10023000AF93BF938091170190911801A09119017C
:10024000B0911A013091160123E0230F2D3720F4CD
:100250000196A11DB11D05C026E8230F0296A11D20
:10026000B11D209316018093170190931801A0935C
:100270001901B0931A0180911B0190911C01A0916A
:100280001D01B0911E010196A11DB11D80931B019E
:1002900090931C01A0931D01B0931E01BF91AF91DB
:1002A0009F918F913F912F910F900FBE0F901F90B4
:1002B00018953FB7F89480911B0190911C01A09173
:1002C0001D01B0911E0126B5A89B05C02F3F19F056
:1002D0000196A11DB11D3FBF6627782F892F9A2F48
:1002E000620F711D811D911D42E0660F771F881FEF
:1002F000991F4A95D1F70895CF92DF92EF92FF921E
:10030000CF93DF936B017C010E945901EB01C11473
:10031000D104E104F10489F00E943E050E945901D4
:100320006C1B7D0B683E734090F381E0C81AD108C6
:10033000E108F108C851DC4FEACFDF91CF91FF907F
:10034000EF90DF90CF900895789484B5826084BD5B
:1003500084B5816084BD85B5826085BD85B58160C9
:1003600085BDEEE6F0E0808181608083E1E8F0E029
:100370001082808182608083808181608083E0E858
:10038000F0E0808181608083E1EBF0E08081846037
:100390008083E0EBF0E0808181608083EAE7F0E039
:1003A000808184608083808182608083808181609D
:1003B00080838081806880831092C10008958E3090
:1003C00008F08E5087702091000190E4299F9001E1
:1003D0001124822B80937C0080917A00806480932A
:1003E0007A0080917A0086FDFCCF80917800209180
:1003F000790090E0922B08951F93CF93DF93182FED
:10040000EB0161E00E948402209711F460E004C0D7
:10041000CF3FD10539F461E0812FDF91CF911F915A
:100420000C94BD02E12FF0E0E859FF4FE491E33076
:10043000F9F048F4E130B9F0E230A1F584B580621A
:1004400084BDC8BD34C0E730E9F0E83019F1E430CC
:1004500049F580918000806280938000D0938B006A
:10046000C0938A0024C084B5806884BDC7BD1FC006
:1004700080918000806880938000D0938900C09331
:10048000880015C08091B00080688093B000C09350
:10049000B3000DC08091B00080628093B000C09323
:1004A000B40005C0C038D1050CF0B5CFAFCFDF9197
:1004B000CF911F910895833081F028F4813099F015
:1004C0008230A1F008958730A9F08830B9F08430E7
:1004D000D1F4809180008F7D03C0809180008F7760
:1004E00080938000089584B58F7702C084B58F7D96
:1004F00084BD08958091B0008F7703C08091B000D3
:100500008F7D8093B0000895CF93DF9390E0FC013E
:10051000E458FF4F2491FC01E057FF4F849188235A
:1005200049F190E0880F991FFC01E854FF4FA59115
:10053000B49182559F4FFC01C591D4919FB7611131
:1005400008C0F8948C91209582238C938881822313
:100550000AC0623051F4F8948C91322F3095832385
:100560008C938881822B888304C0F8948C91822B91
:100570008C939FBFDF91CF9108950F931F93CF93DB
:10058000DF931F92CDB7DEB7282F30E0F901E8598D
:10059000FF4F8491F901E458FF4F1491F901E0579E
:1005A000FF4F04910023C9F0882321F069830E9442
:1005B0005B026981E02FF0E0EE0FFF1FE255FF4F75
:1005C000A591B4919FB7F8948C91611103C01095D7
:1005D000812301C0812B8C939FBF0F90DF91CF911E
:1005E0001F910F910895CF93DF93282F30E0F901E9
:1005F000E859FF4F8491F901E458FF4FD491F90174
:10060000E057FF4FC491CC2391F081110E945B020F
:10061000EC2FF0E0EE0FFF1FEC55FF4FA591B491CA
:100620002C912D2381E090E021F480E002C080E055
:1006300090E0DF91CF910895FC01818D228D90E0B3
:10064000805C9F4F821B91098F7399270895FC014D
:10065000918D828D981731F0828DE80FF11D858D77
:1006600090E008958FEF9FEF0895FC01918D828DAA
:10067000981761F0828DDF01A80FB11D5D968C91F6
:10068000928D9F5F9F73928F90E008958FEF9FEF01
:10069000089589EB94E0892B49F080E090E0892B64
:1006A00029F00E94B90481110C9400000895FC0106
:1006B000848DDF01A80FB11DA35ABF4F2C91848DEB
:1006C00090E001968F739927848FA689B7892C9320
:1006D000A089B1898C9180648C93938D848D9813BB
:1006E00006C00288F389E02D80818F7D8083089584
:1006F000CF93DF93EC01888D8823C9F0EA89FB89C9
:10070000808185FD05C0A889B9898C9186FD0FC0BF
:100710000FB607FCF5CF808185FFF2CFA889B98994
:100720008C9185FFEDCFCE010E945703E7CFDF917B
:10073000CF910895CF92DF92FF920F931F93CF93A3
:10074000DF931F92CDB7DEB76C0181E0D6015896DA
:100750008C9358975B969C915B975C968C915C9779
:10076000981307C05096ED91FC915197808185FDBB
:100770002EC0F601038D10E00F5F1F4F0F7311277E
:10078000F02EF601848DF81211C00FB607FCF9CFD8
:10079000D6015096ED91FC915197808185FFF1CF64
:1007A000C60169830E9457036981EBCF838DE80FEF
:1007B000F11DE35AFF4F6083D6015B960C935B9764
:1007C0005296ED91FC915397808180620CC0D601C6
:1007D0005696ED91FC91579760835096ED91FC9160
:1007E000519780818064808381E090E00F90DF9159
:1007F000CF911F910F91FF90DF90CF900895BF92FE
:10080000CF92DF92EF92FF92CF93DF93EC016A01D8
:100810007B01B22EE889F98982E08083411581EE5F
:10082000580761057105A1F060E079E08DE390E083
:10083000A70196010E943F05215031094109510944
:100840005695479537952795211580E1380798F0FB
:10085000E889F989108260E874E88EE190E0A701E8
:1008600096010E943F0521503109410951095695D1
:10087000479537952795EC85FD853083EE85FF8577
:100880002083188EEC89FD89B082EA89FB898081FA
:1008900080618083EA89FB89808188608083EA891E
:1008A000FB89808180688083EA89FB8980818F7DD4
:1008B0008083DF91CF91FF90EF90DF90CF90BF903A
:1008C00008951F920F920FB60F9211242F938F93BA
:1008D0009F93EF93FF93E0912F01F091300180817E
:1008E000E0913501F091360182FD12C09081809136
:1008F00038018F5F8F7320913901821751F0E09199
:100900003801F0E0E15EFE4F958F8093380101C021
:100910008081FF91EF919F918F912F910F900FBE4A
:100920000F901F9018951F920F920FB60F921124DF
:100930002F933F934F935F936F937F938F939F93E7
:10094000AF93BF93EF93FF938FE191E00E94570322
:10095000FF91EF91BF91AF919F918F917F916F9197
:100960005F914F913F912F910F900FBE0F901F906D
:1009700018958FE191E00E941C0321E0892B09F476
:1009800020E0822F0895109222011092210188EE1A
:1009900093E0A0E0B0E08093230190932401A09322
:1009A0002501B093260185E091E09093200180938A
:1009B0001F0185EC90E090932C0180932B0184EC37
:1009C00090E090932E0180932D0180EC90E0909325
:1009D000300180932F0181EC90E09093320180935D
:1009E000310182EC90E0909334018093330186ECE6
:1009F00090E0909336018093350110923801109267
:100A0000390110923A0110923B01089508950E9415
:100A1000A4010E9406050E948C00C9E4D3E00E9454
:100A2000A5002097E1F30E944903F9CFCF92DF920E
:100A3000EF92FF920F931F93CF93DF936C017A0194
:100A4000EB01E60EF71E00E010E0CE15DF0561F0C9
:100A50006991D601ED91FC910190F081E02DC601E4
:100A60000995080F191FF1CFC801DF91CF911F9190
:100A70000F91FF90EF90DF90CF9008950895A1E23D
:100A80001A2EAA1BBB1BFD010DC0AA1FBB1FEE1F08
:100A9000FF1FA217B307E407F50720F0A21BB30B53
:100AA000E40BF50B661F771F881F991F1A9469F7CF
:100AB00060957095809590959B01AC01BD01CF012B
:100AC0000895EE0FFF1F0590F491E02D0994F8941E
:020AD000FFCF56
:100AD20001000000009A0316051C03350327037862
:020AE20003000F
:00000001FF
